:100000000C945D000C9485000C9485000C94850084
:100010000C9485000C9485000C9485000C9485004C
:100020000C9485000C9485000C9485000C9443017D
:100030000C9485000C9485000C9485000C9485002C
:100040000C94F9000C9485000C9485000C948500A8
:100050000C9485000C9485000C9485000C9485000C
:100060000C9485000C9485000000000024002700FB
:100070002A0000000000250028002B0004040404CE
:100080000404040402020202020203030303030342
:10009000010204081020408001020408102001021F
:1000A00004081020000000080002010000030407FB
:1000B0000000000000000000160311241FBECFEF57
:1000C000D8E0DEBFCDBF11E0A0E0B1E0ECE8F6E0A3
:1000D00002C005900D92A230B107D9F721E0A2E04D
:1000E000B1E001C01D92A433B207E1F710E0CDE505
:1000F000D0E004C02197FE010E943E03CC35D10719
:10010000C9F70E9404020C9444030C94000090E090
:10011000FC01EC55FF4F2491FC01E057FF4F349157
:10012000FC01E458FF4FE491EE2309F43CC0222384
:1001300039F1233091F038F42130A9F0223001F563
:1001400084B58F7D12C0273091F02830A1F0243083
:10015000B9F4809180008F7D03C0809180008F77FB
:10016000809380000DC084B58F7784BD09C08091D5
:10017000B0008F7703C08091B0008F7D8093B00076
:10018000F0E0EE0FFF1FEE58FF4FA591B4919FB71F
:10019000F894611104C08C913095382302C0EC9121
:1001A0003E2B3C939FBF08953FB7F8948091300158
:1001B00090913101A0913201B091330126B5A89BF5
:1001C00005C02F3F19F00196A11DB11D3FBFBA2FE9
:1001D000A92F982F8827820F911DA11DB11DBC0149
:1001E000CD0142E0660F771F881F991F4A95D1F70E
:1001F00008951F920F920FB60F9211242F933F93E1
:100200008F939F93AF93BF9380912C0190912D0179
:10021000A0912E01B0912F0130912B0123E0230FEB
:100220002D3720F40196A11DB11D05C026E8230F2E
:100230000296A11DB11D20932B0180932C01909358
:100240002D01A0932E01B0932F0180913001909148
:100250003101A0913201B09133010196A11DB11D70
:100260008093300190933101A0933201B093330118
:10027000BF91AF919F918F913F912F910F900FBEA2
:100280000F901F9018951F920F920FB60F92112486
:100290002F933F934F935F936F937F938F939F938E
:1002A000AF93BF93EF93FF938091030187FF05C046
:1002B00010928500109284001BC020910301022E31
:1002C000000C330B8091020190E02817390784F469
:1002D00080910301082E000C990BFC01EE0FFF1F0B
:1002E0008E0F9F1FFC01EC5FFE4F808186FD15C0C5
:1002F000809103018F5F8093030120910301022EFF
:10030000000C330B8091020190E028173907C4F4E8
:10031000809103018C3064F113C080910301082E99
:10032000000C990BFC01EE0FFF1F8E0F9F1FFC01AD
:10033000EC5FFE4F808160E08F730E948700D8CF12
:100340008091840090918500049680349C4918F433
:1003500080E49CE905C0809184009091850004961A
:1003600090938900809388008FEF809303013BC0B6
:10037000209184003091850080910301082E000CAB
:10038000990BFC01EE0FFF1F8E0F9F1FFC01EC5F0E
:10039000FE4F81819281820F931F909389008093F9
:1003A000880080910301082E000C990BFC01EE0FD0
:1003B000FF1F8E0F9F1FFC01EC5FFE4F808186FFA9
:1003C00012C080910301082E000C990BFC01EE0F66
:1003D000FF1F8E0F9F1FFC01EC5FFE4F808161E0CD
:1003E0008F730E948700FF91EF91BF91AF919F9112
:1003F0008F917F916F915F914F913F912F910F90CE
:100400000FBE0F901F901895789484B5826084BDBC
:1004100084B5816084BD85B5826085BD85B5816008
:1004200085BD80916E00816080936E001092810086
:100430008091810082608093810080918100816041
:100440008093810080918000816080938000809102
:10045000B10084608093B1008091B000816080938E
:10046000B00080917A00846080937A0080917A0055
:10047000826080937A0080917A00816080937A0014
:1004800080917A00806880937A001092C1008091F8
:1004900028018C3008F068C0EAE9F0E02491E6E831
:1004A000F0E08491882399F090E0880F991FFC0177
:1004B000E859FF4FA591B491FC01EE58FF4F85918B
:1004C00094918FB7F894EC91E22BEC938FBF8091CD
:1004D0002801E82FF0E09F01220F331FE20FF31FE6
:1004E000EC5FFE4F9081907C9A609083109229017E
:1004F00010922A016CE00E9432032CE0829FB0012E
:10050000112440E050E09B01240F351FF901EE0F4C
:10051000FF1F2E0F3F1FF901EC5FFE4F908196FDEC
:1005200016C04F5F5F4F4C30510569F781110FC006
:100530001092800082E080938100109285001092DA
:100540008400B19A80916F00826080936F00E09187
:100550002801F0E0CF01880F991FE80FF91FEC5F29
:10056000FE4F808180648083C8E5D2E000E010E027
:1005700080910001909101018D3726E092074CF1A6
:1005800001969093010180930001209128012C3065
:1005900000F530912A01AE01431B510937FD5395F7
:1005A000440F551F440F551F481759070CF4CA0133
:1005B0000297880F991F4FB7F89430E0F901EE0FBA
:1005C000FF1F2E0F3F1FF901EC5FFE4F92838183C7
:1005D0004FBF0E94D4006B017C018FE0882E912CCC
:1005E000A12CB12C0E94D400DC01CB018C199D09F7
:1005F000AE09BF09883E9340A105B10598F381E09B
:10060000881A9108A108B10898EEC90E93E0D91E86
:10061000E11CF11C81149104A104B10419F7011526
:10062000110509F4A5CF0E940000A2CF809102011C
:100630008C30A0F491E0980F9093020180932801F0
:1006400090E0FC01EE0FFF1F8E0F9F1FFC01EC5F7F
:10065000FE4F88EB9BE09283818308958FEF809318
:1006600028010895991B79E004C0991F961708F096
:10067000961B881F7A95C9F780950895EE0FFF1F86
:0C0680000590F491E02D0994F894FFCF50
:02068C00DC058B
:00000001FF
